{
  "contractName": "ERC20Token",
  "abi": [
    {
      "inputs": [
        {
          "internalType": "uint256",
          "name": "_initialAmount",
          "type": "uint256"
        },
        {
          "internalType": "string",
          "name": "_tokenName",
          "type": "string"
        },
        {
          "internalType": "uint8",
          "name": "_decimalUnits",
          "type": "uint8"
        },
        {
          "internalType": "string",
          "name": "_tokenSymbol",
          "type": "string"
        }
      ],
      "stateMutability": "nonpayable",
      "type": "constructor"
    },
    {
      "anonymous": false,
      "inputs": [
        {
          "indexed": true,
          "internalType": "address",
          "name": "tokenOwner",
          "type": "address"
        },
        {
          "indexed": true,
          "internalType": "address",
          "name": "spender",
          "type": "address"
        },
        {
          "indexed": false,
          "internalType": "uint256",
          "name": "tokens",
          "type": "uint256"
        }
      ],
      "name": "Approval",
      "type": "event"
    },
    {
      "anonymous": false,
      "inputs": [
        {
          "indexed": true,
          "internalType": "address",
          "name": "from",
          "type": "address"
        },
        {
          "indexed": true,
          "internalType": "address",
          "name": "to",
          "type": "address"
        },
        {
          "indexed": false,
          "internalType": "uint256",
          "name": "tokens",
          "type": "uint256"
        }
      ],
      "name": "Transfer",
      "type": "event"
    },
    {
      "inputs": [
        {
          "internalType": "address",
          "name": "",
          "type": "address"
        },
        {
          "internalType": "address",
          "name": "",
          "type": "address"
        }
      ],
      "name": "allowed",
      "outputs": [
        {
          "internalType": "uint256",
          "name": "",
          "type": "uint256"
        }
      ],
      "stateMutability": "view",
      "type": "function",
      "constant": true
    },
    {
      "inputs": [
        {
          "internalType": "address",
          "name": "",
          "type": "address"
        }
      ],
      "name": "balances",
      "outputs": [
        {
          "internalType": "uint256",
          "name": "",
          "type": "uint256"
        }
      ],
      "stateMutability": "view",
      "type": "function",
      "constant": true
    },
    {
      "inputs": [],
      "name": "decimals",
      "outputs": [
        {
          "internalType": "uint8",
          "name": "",
          "type": "uint8"
        }
      ],
      "stateMutability": "view",
      "type": "function",
      "constant": true
    },
    {
      "inputs": [],
      "name": "name",
      "outputs": [
        {
          "internalType": "string",
          "name": "",
          "type": "string"
        }
      ],
      "stateMutability": "view",
      "type": "function",
      "constant": true
    },
    {
      "inputs": [],
      "name": "symbol",
      "outputs": [
        {
          "internalType": "string",
          "name": "",
          "type": "string"
        }
      ],
      "stateMutability": "view",
      "type": "function",
      "constant": true
    },
    {
      "inputs": [],
      "name": "totSupply",
      "outputs": [
        {
          "internalType": "uint256",
          "name": "",
          "type": "uint256"
        }
      ],
      "stateMutability": "view",
      "type": "function",
      "constant": true
    },
    {
      "inputs": [
        {
          "internalType": "address",
          "name": "_to",
          "type": "address"
        },
        {
          "internalType": "uint256",
          "name": "_value",
          "type": "uint256"
        }
      ],
      "name": "transfer",
      "outputs": [
        {
          "internalType": "bool",
          "name": "success",
          "type": "bool"
        }
      ],
      "stateMutability": "nonpayable",
      "type": "function"
    },
    {
      "inputs": [
        {
          "internalType": "address",
          "name": "_from",
          "type": "address"
        },
        {
          "internalType": "address",
          "name": "_to",
          "type": "address"
        },
        {
          "internalType": "uint256",
          "name": "_value",
          "type": "uint256"
        }
      ],
      "name": "transferFrom",
      "outputs": [
        {
          "internalType": "bool",
          "name": "success",
          "type": "bool"
        }
      ],
      "stateMutability": "nonpayable",
      "type": "function"
    },
    {
      "inputs": [
        {
          "internalType": "address",
          "name": "_owner",
          "type": "address"
        }
      ],
      "name": "balanceOf",
      "outputs": [
        {
          "internalType": "uint256",
          "name": "balance",
          "type": "uint256"
        }
      ],
      "stateMutability": "view",
      "type": "function",
      "constant": true
    },
    {
      "inputs": [
        {
          "internalType": "address",
          "name": "_spender",
          "type": "address"
        },
        {
          "internalType": "uint256",
          "name": "_value",
          "type": "uint256"
        }
      ],
      "name": "approve",
      "outputs": [
        {
          "internalType": "bool",
          "name": "success",
          "type": "bool"
        }
      ],
      "stateMutability": "nonpayable",
      "type": "function"
    },
    {
      "inputs": [
        {
          "internalType": "address",
          "name": "_owner",
          "type": "address"
        },
        {
          "internalType": "address",
          "name": "_spender",
          "type": "address"
        }
      ],
      "name": "allowance",
      "outputs": [
        {
          "internalType": "uint256",
          "name": "remaining",
          "type": "uint256"
        }
      ],
      "stateMutability": "view",
      "type": "function",
      "constant": true
    },
    {
      "inputs": [],
      "name": "totalSupply",
      "outputs": [
        {
          "internalType": "uint256",
          "name": "totSupp",
          "type": "uint256"
        }
      ],
      "stateMutability": "view",
      "type": "function",
      "constant": true
    }
  ],
  "bytecode": "0x60806040523480156200001157600080fd5b5060405162001656380380620016568339818101604052810190620000379190620002d7565b83600160003373ffffffffffffffffffffffffffffffffffffffff1673ffffffffffffffffffffffffffffffffffffffff16815260200190815260200160002081905550836000819055508260039081620000939190620005c8565b5081600460006101000a81548160ff021916908360ff1602179055508060059081620000c09190620005c8565b5050505050620006af565b6000604051905090565b600080fd5b600080fd5b6000819050919050565b620000f481620000df565b81146200010057600080fd5b50565b6000815190506200011481620000e9565b92915050565b600080fd5b600080fd5b6000601f19601f8301169050919050565b7f4e487b7100000000000000000000000000000000000000000000000000000000600052604160045260246000fd5b6200016f8262000124565b810181811067ffffffffffffffff8211171562000191576200019062000135565b5b80604052505050565b6000620001a6620000cb565b9050620001b4828262000164565b919050565b600067ffffffffffffffff821115620001d757620001d662000135565b5b620001e28262000124565b9050602081019050919050565b60005b838110156200020f578082015181840152602081019050620001f2565b60008484015250505050565b6000620002326200022c84620001b9565b6200019a565b9050828152602081018484840111156200025157620002506200011f565b5b6200025e848285620001ef565b509392505050565b600082601f8301126200027e576200027d6200011a565b5b8151620002908482602086016200021b565b91505092915050565b600060ff82169050919050565b620002b18162000299565b8114620002bd57600080fd5b50565b600081519050620002d181620002a6565b92915050565b60008060008060808587031215620002f457620002f3620000d5565b5b6000620003048782880162000103565b945050602085015167ffffffffffffffff811115620003285762000327620000da565b5b620003368782880162000266565b93505060406200034987828801620002c0565b925050606085015167ffffffffffffffff8111156200036d576200036c620000da565b5b6200037b8782880162000266565b91505092959194509250565b600081519050919050565b7f4e487b7100000000000000000000000000000000000000000000000000000000600052602260045260246000fd5b60006002820490506001821680620003da57607f821691505b602082108103620003f057620003ef62000392565b5b50919050565b60008190508160005260206000209050919050565b60006020601f8301049050919050565b600082821b905092915050565b6000600883026200045a7fffffffffffffffffffffffffffffffffffffffffffffffffffffffffffffffff826200041b565b6200046686836200041b565b95508019841693508086168417925050509392505050565b6000819050919050565b6000620004a9620004a36200049d84620000df565b6200047e565b620000df565b9050919050565b6000819050919050565b620004c58362000488565b620004dd620004d482620004b0565b84845462000428565b825550505050565b600090565b620004f4620004e5565b62000501818484620004ba565b505050565b5b8181101562000529576200051d600082620004ea565b60018101905062000507565b5050565b601f82111562000578576200054281620003f6565b6200054d846200040b565b810160208510156200055d578190505b620005756200056c856200040b565b83018262000506565b50505b505050565b600082821c905092915050565b60006200059d600019846008026200057d565b1980831691505092915050565b6000620005b883836200058a565b9150826002028217905092915050565b620005d38262000387565b67ffffffffffffffff811115620005ef57620005ee62000135565b5b620005fb8254620003c1565b620006088282856200052d565b600060209050601f8311600181146200064057600084156200062b578287015190505b620006378582620005aa565b865550620006a7565b601f1984166200065086620003f6565b60005b828110156200067a5784890151825560018201915060208501945060208101905062000653565b868310156200069a578489015162000696601f8916826200058a565b8355505b6001600288020188555050505b505050505050565b610f9780620006bf6000396000f3fe608060405234801561001057600080fd5b50600436106100b45760003560e01c80635c658165116100715780635c658165146101a357806370a08231146101d357806381fbf0a51461020357806395d89b4114610221578063a9059cbb1461023f578063dd62ed3e1461026f576100b4565b806306fdde03146100b9578063095ea7b3146100d757806318160ddd1461010757806323b872dd1461012557806327e235e314610155578063313ce56714610185575b600080fd5b6100c161029f565b6040516100ce9190610af4565b60405180910390f35b6100f160048036038101906100ec9190610baf565b61032d565b6040516100fe9190610c0a565b60405180910390f35b61010f61041f565b60405161011c9190610c34565b60405180910390f35b61013f600480360381019061013a9190610c4f565b610428565b60405161014c9190610c0a565b60405180910390f35b61016f600480360381019061016a9190610ca2565b610711565b60405161017c9190610c34565b60405180910390f35b61018d610729565b60405161019a9190610ceb565b60405180910390f35b6101bd60048036038101906101b89190610d06565b61073c565b6040516101ca9190610c34565b60405180910390f35b6101ed60048036038101906101e89190610ca2565b610761565b6040516101fa9190610c34565b60405180910390f35b61020b6107aa565b6040516102189190610c34565b60405180910390f35b6102296107b0565b6040516102369190610af4565b60405180910390f35b61025960048036038101906102549190610baf565b61083e565b6040516102669190610c0a565b60405180910390f35b61028960048036038101906102849190610d06565b6109dd565b6040516102969190610c34565b60405180910390f35b600380546102ac90610d75565b80601f01602080910402602001604051908101604052809291908181526020018280546102d890610d75565b80156103255780601f106102fa57610100808354040283529160200191610325565b820191906000526020600020905b81548152906001019060200180831161030857829003601f168201915b505050505081565b600081600260003373ffffffffffffffffffffffffffffffffffffffff1673ffffffffffffffffffffffffffffffffffffffff16815260200190815260200160002060008573ffffffffffffffffffffffffffffffffffffffff1673ffffffffffffffffffffffffffffffffffffffff168152602001908152602001600020819055508273ffffffffffffffffffffffffffffffffffffffff163373ffffffffffffffffffffffffffffffffffffffff167f8c5be1e5ebec7d5bd14f71427d1e84f3dd0314c0f7b2291e5b200ac8c7c3b9258460405161040d9190610c34565b60405180910390a36001905092915050565b60008054905090565b600080600260008673ffffffffffffffffffffffffffffffffffffffff1673ffffffffffffffffffffffffffffffffffffffff16815260200190815260200160002060003373ffffffffffffffffffffffffffffffffffffffff1673ffffffffffffffffffffffffffffffffffffffff16815260200190815260200160002054905082600160008773ffffffffffffffffffffffffffffffffffffffff1673ffffffffffffffffffffffffffffffffffffffff16815260200190815260200160002054101580156104f95750828110155b610538576040517f08c379a000000000000000000000000000000000000000000000000000000000815260040161052f90610e18565b60405180910390fd5b82600160008673ffffffffffffffffffffffffffffffffffffffff1673ffffffffffffffffffffffffffffffffffffffff16815260200190815260200160002060008282546105879190610e67565b9250508190555082600160008773ffffffffffffffffffffffffffffffffffffffff1673ffffffffffffffffffffffffffffffffffffffff16815260200190815260200160002060008282546105dd9190610e9b565b925050819055507fffffffffffffffffffffffffffffffffffffffffffffffffffffffffffffffff8110156106a05782600260008773ffffffffffffffffffffffffffffffffffffffff1673ffffffffffffffffffffffffffffffffffffffff16815260200190815260200160002060003373ffffffffffffffffffffffffffffffffffffffff1673ffffffffffffffffffffffffffffffffffffffff16815260200190815260200160002060008282546106989190610e9b565b925050819055505b8373ffffffffffffffffffffffffffffffffffffffff168573ffffffffffffffffffffffffffffffffffffffff167fddf252ad1be2c89b69c2b068fc378daa952ba7f163c4a11628f55a4df523b3ef856040516106fd9190610c34565b60405180910390a360019150509392505050565b60016020528060005260406000206000915090505481565b600460009054906101000a900460ff1681565b6002602052816000526040600020602052806000526040600020600091509150505481565b6000600160008373ffffffffffffffffffffffffffffffffffffffff1673ffffffffffffffffffffffffffffffffffffffff168152602001908152602001600020549050919050565b60005481565b600580546107bd90610d75565b80601f01602080910402602001604051908101604052809291908181526020018280546107e990610d75565b80156108365780601f1061080b57610100808354040283529160200191610836565b820191906000526020600020905b81548152906001019060200180831161081957829003601f168201915b505050505081565b600081600160003373ffffffffffffffffffffffffffffffffffffffff1673ffffffffffffffffffffffffffffffffffffffff1681526020019081526020016000205410156108c2576040517f08c379a00000000000000000000000000000000000000000000000000000000081526004016108b990610f41565b60405180910390fd5b81600160003373ffffffffffffffffffffffffffffffffffffffff1673ffffffffffffffffffffffffffffffffffffffff16815260200190815260200160002060008282546109119190610e9b565b9250508190555081600160008573ffffffffffffffffffffffffffffffffffffffff1673ffffffffffffffffffffffffffffffffffffffff16815260200190815260200160002060008282546109679190610e67565b925050819055508273ffffffffffffffffffffffffffffffffffffffff163373ffffffffffffffffffffffffffffffffffffffff167fddf252ad1be2c89b69c2b068fc378daa952ba7f163c4a11628f55a4df523b3ef846040516109cb9190610c34565b60405180910390a36001905092915050565b6000600260008473ffffffffffffffffffffffffffffffffffffffff1673ffffffffffffffffffffffffffffffffffffffff16815260200190815260200160002060008373ffffffffffffffffffffffffffffffffffffffff1673ffffffffffffffffffffffffffffffffffffffff16815260200190815260200160002054905092915050565b600081519050919050565b600082825260208201905092915050565b60005b83811015610a9e578082015181840152602081019050610a83565b60008484015250505050565b6000601f19601f8301169050919050565b6000610ac682610a64565b610ad08185610a6f565b9350610ae0818560208601610a80565b610ae981610aaa565b840191505092915050565b60006020820190508181036000830152610b0e8184610abb565b905092915050565b600080fd5b600073ffffffffffffffffffffffffffffffffffffffff82169050919050565b6000610b4682610b1b565b9050919050565b610b5681610b3b565b8114610b6157600080fd5b50565b600081359050610b7381610b4d565b92915050565b6000819050919050565b610b8c81610b79565b8114610b9757600080fd5b50565b600081359050610ba981610b83565b92915050565b60008060408385031215610bc657610bc5610b16565b5b6000610bd485828601610b64565b9250506020610be585828601610b9a565b9150509250929050565b60008115159050919050565b610c0481610bef565b82525050565b6000602082019050610c1f6000830184610bfb565b92915050565b610c2e81610b79565b82525050565b6000602082019050610c496000830184610c25565b92915050565b600080600060608486031215610c6857610c67610b16565b5b6000610c7686828701610b64565b9350506020610c8786828701610b64565b9250506040610c9886828701610b9a565b9150509250925092565b600060208284031215610cb857610cb7610b16565b5b6000610cc684828501610b64565b91505092915050565b600060ff82169050919050565b610ce581610ccf565b82525050565b6000602082019050610d006000830184610cdc565b92915050565b60008060408385031215610d1d57610d1c610b16565b5b6000610d2b85828601610b64565b9250506020610d3c85828601610b64565b9150509250929050565b7f4e487b7100000000000000000000000000000000000000000000000000000000600052602260045260246000fd5b60006002820490506001821680610d8d57607f821691505b602082108103610da057610d9f610d46565b5b50919050565b7f496e73756666696369656e7420616c6c6f7765642066756e647320666f72207460008201527f72616e7366657220736f757263652e0000000000000000000000000000000000602082015250565b6000610e02602f83610a6f565b9150610e0d82610da6565b604082019050919050565b60006020820190508181036000830152610e3181610df5565b9050919050565b7f4e487b7100000000000000000000000000000000000000000000000000000000600052601160045260246000fd5b6000610e7282610b79565b9150610e7d83610b79565b9250828201905080821115610e9557610e94610e38565b5b92915050565b6000610ea682610b79565b9150610eb183610b79565b9250828203905081811115610ec957610ec8610e38565b5b92915050565b7f496e73756666696369656e742066756e647320666f72207472616e736665722060008201527f736f757263652e00000000000000000000000000000000000000000000000000602082015250565b6000610f2b602783610a6f565b9150610f3682610ecf565b604082019050919050565b60006020820190508181036000830152610f5a81610f1e565b905091905056fea26469706673582212209e10b04363fc6c9480a2a67c3fbab898c75d4d823f621581b9c80231d635d6c864736f6c63430008100033",
  "immutableReferences": {},
  "source": "// SPDX-License-Identifier: MIT\r\npragma solidity >=0.4.21;\r\nimport \"./erc20Interface.sol\";\r\ncontract ERC20Token is ERC20Interface {\r\n    uint256 constant private MAX_UINT256 = 2**256 - 1;\r\n    mapping (address => uint256) public balances;\r\n    mapping (address => mapping (address => uint256)) public allowed;\r\n    string public name;                   // Descriptive name \r\n    uint8 public decimals;                // How many decimals to use when displaying amounts\r\n    string public symbol;                 // Short identifier for token\r\n    // Create the new token and assign initial values, including initial amount\r\n    constructor(\r\n        uint256 _initialAmount,\r\n        string memory _tokenName,\r\n        uint8 _decimalUnits,\r\n        string memory _tokenSymbol\r\n    ) {\r\n        balances[msg.sender] = _initialAmount;         // The creator owns all initial tokens\r\n        totSupply = _initialAmount;                    // Update total token supply\r\n        name = _tokenName;                             // Store the token name (used for display only)\r\n        decimals = _decimalUnits;                      // Store the number of decimals (used for display only)\r\n        symbol = _tokenSymbol;                         // Store the token symbol (used for display only)\r\n    }\r\n    // Transfer tokens from msg.sender to a specified address\r\n    function transfer(address _to, uint256 _value) public override returns (bool success) {\r\n        require(balances[msg.sender] >= _value,\"Insufficient funds for transfer source.\");\r\n        balances[msg.sender] -= _value;\r\n        balances[_to] += _value;\r\n        emit Transfer(msg.sender, _to, _value); \r\n        return true;\r\n    }\r\n    // Transfer tokens from one specified address to another specified address\r\n    function transferFrom(address _from, address _to, uint256 _value) public override returns (bool success) {\r\n        uint256 allowances = allowed[_from][msg.sender];\r\n        require(balances[_from] >= _value && allowances >= _value,\"Insufficient allowed funds for transfer source.\");\r\n        balances[_to] += _value;\r\n        balances[_from] -= _value;\r\n        if (allowances < MAX_UINT256) {\r\n            allowed[_from][msg.sender] -= _value;\r\n        }\r\n        emit Transfer(_from, _to, _value); \r\n        return true;\r\n    }\r\n    // Return the current balance (in tokens) of a specified address\r\n    function balanceOf(address _owner) public override view returns (uint256 balance) {\r\n        return balances[_owner];\r\n    }\r\n    // Set an owner to approve for a delegate account\r\n    function approve(address _spender, uint256 _value) public override returns (bool success) {\r\n        allowed[msg.sender][_spender] = _value;\r\n        emit Approval(msg.sender, _spender, _value); \r\n        return true;\r\n    }\r\n    // Return the approved tokens by owner to delegate\r\n    function allowance(address _owner, address _spender) public override view returns (uint256\r\n    remaining) {\r\n        return allowed[_owner][_spender];\r\n    }\r\n    // Return the total number of tokens in circulation\r\n    function totalSupply() public override view returns (uint256 totSupp) {\r\n        return totSupply;\r\n    }\r\n}",
  "sourcePath": "C:\\Users\\HP\\workspace\\AccuCoin\\contracts\\erc20Token.sol",
  "compiler": {
    "name": "solc",
    "version": "0.8.16+commit.07a7930e.Emscripten.clang"
  },
  "schemaVersion": "3.4.9",
  "updatedAt": "2022-08-23T17:40:24.162Z",
  "networkType": "ethereum",
  "devdoc": {
    "kind": "dev",
    "methods": {},
    "version": 1
  },
  "userdoc": {
    "kind": "user",
    "methods": {},
    "version": 1
  }
}